:100000000C942A000C94E9050C9418060C943906FB
:100010000C9447000C9447000C9447000C94800605
:100020000C9447000C9447000C9447000C94470034
:100030000C9447000C9447000C9447000C94470024
:100040000C9447000C9447000C9447000C94470014
:100050000C94470011241FBECFE5D8E0DEBFCDBF12
:1000600010E0A8E6B0E001C01D92A037B107E1F7AB
:1000700010E0A0E6B0E0ECEDF2E202C005900D92D7
:10008000A836B107D9F70E9423110C946C110C9477
:100090000000EF92FF920F931F937B018C0120E0F1
:1000A00030E040E05FE40E94490388238CF0C801FF
:1000B000B70120E030E040E05FE40E94C1010E940F
:1000C000A9039B01AC01205030404040504806C07D
:1000D000C801B7010E94A9039B01AC01B901CA0183
:1000E0001F910F91FF90EF900895A0E0B0E0EBE733
:1000F000F0E00C943511DC012B01FA019C91923057
:1001000008F439C1EB018881823008F433C194309E
:1001100069F4843009F02FC111969C91119789815F
:10012000981709F428C1A0E6B0E025C1843009F48D
:1001300021C18230A9F4923009F01DC19A01AD01AC
:1001400088E0EA010990AE01E90109929E0181501F
:10015000C1F7E201898111969C918923818308C1AD
:10016000923009F407C112962D903C901397EB0141
:100170008A819B811496AD90BD90CD90DC901797AD
:10018000EC80FD800E811F819101281B390BB90184
:1001900037FF04C066277727621B730B6032710537
:1001A0000CF061C0121613066CF537014801062EDB
:1001B00004C096948794779467940A94D2F721E0C8
:1001C00030E040E050E004C0220F331F441F551FB1
:1001D0006A95D2F721503040404050402E213F21B7
:1001E00040235123211531054105510521F021E01E
:1001F00030E040E050E079018A01E628F72808293C
:1002000019293CC0232BD1F1260E371E350146019A
:10021000062E04C096948794779467940A94D2F734
:1002200021E030E040E050E004C0220F331F441FC3
:10023000551F6A95D2F721503040404050402A2146
:100240003B214C215D21211531054105510521F04E
:1002500021E030E040E050E059016A01A628B728CB
:10026000C828D9280BC0821593052CF01C01AA249C
:10027000BB24650103C0EE24FF24870111969C91E5
:10028000D20111968C91981709F445C0992339F041
:10029000A80197012A193B094C095D0906C0A6016E
:1002A00095012E193F09400B510B57FD08C01182D3
:1002B0003382228224833583468357831DC081E0A5
:1002C00081833382228288279927DC01821B930B4A
:1002D000A40BB50B84839583A683B7830DC0220F2F
:1002E000331F441F551F24833583468357838281E0
:1002F000938101979383828324813581468157813D
:10030000DA01C9010197A109B1098F5F9F4FAF4F72
:10031000BF4328F30BC0918333822282EA0CFB1C7B
:100320000C1D1D1DE482F5820683178383E0808304
:10033000248135814681578157FF1AC0C901AA27F8
:1003400097FDA095BA2F81709070A070B0705695EF
:10035000479537952795822B932BA42BB52B848318
:100360009583A683B7838281938101969383828349
:10037000DF0101C0D201CD01CDB7DEB7E2E10C94BF
:100380005111A0E2B0E0E7ECF1E00C944111698377
:100390007A838B839C832D833E834F835887E9E048
:1003A000EE2EF12CEC0EFD1ECE010196B7010E943F
:1003B000D2048E010F5E1F4FCE010596B8010E9438
:1003C000D2048A8991E089278A8BC701B801AE01DE
:1003D000475E5F4F0E9475000E94FD03A096E6E015
:1003E0000C945D11A0E2B0E0E8EFF1E00C94411153
:1003F00069837A838B839C832D833E834F835887C5
:10040000F9E0EF2EF12CEC0EFD1ECE010196B701A6
:100410000E94D2048E010F5E1F4FCE010596B801D7
:100420000E94D204C701B801AE01475E5F4F0E942F
:1004300075000E94FD03A096E6E00C945D11A0E219
:10044000B0E0E5E2F2E00C94351169837A838B83A6
:100450009C832D833E834F835887CE010196BE0136
:10046000675F7F4F0E94D204CE010596BE016F5E8A
:100470007F4F0E94D2049985923088F0898982301A
:10048000C8F0943019F4823051F404C0843029F457
:10049000923081F480E690E0C6C0923049F420E0CA
:1004A0009A858A89981321E02A87CE010996BBC0D4
:1004B000823049F420E09A858A89981321E02A8BBA
:1004C000CE014196B0C02D843E844F8458886D88FB
:1004D0007E888F88988CEE24FF248701AA24BB2471
:1004E000650140E050E060E070E0E0E0F0E0C10174
:1004F00081709070892BE9F0E60CF71C081D191D1E
:100500009A01AB012A0D3B1D4C1D5D1D80E090E062
:10051000A0E0B0E0E614F7040805190520F481E036
:1005200090E0A0E0B0E0BA01A901480F591F6A1F8E
:100530007B1FAA0CBB1CCC1CDD1C97FE08C081E0F5
:1005400090E0A0E0B0E0A82AB92ACA2ADB2A3196B6
:10055000E032F10549F0660C771C881C991C569412
:10056000479437942794C3CFFA85EA892B893C892D
:100570008B859C85280F391F2E5F3F4F17C0CA01FE
:1005800081709070892B61F016950795F794E79428
:1005900080E090E0A0E0B0E8E82AF92A0A2B1B2BC3
:1005A00076956795579547952F5F3F4F77FDE7CF36
:1005B0000CC0440F551F661F771F17FD4160EE0CDE
:1005C000FF1C001F111F21503040403090E05907A0
:1005D00090E0690790E4790760F32B8F3C8FDB0193
:1005E000CA018F779070A070B07080349105A1051A
:1005F000B10561F447FD0AC0E114F10401051105DC
:1006000029F0405C5F4F6F4F7F4F40781A8EFE1786
:1006100011F081E08A8F4D8F5E8F6F8F78A383E01A
:10062000898FCE0149960E94FD03A096E2E10C94C9
:100630005111A8E1B0E0EFE1F3E00C9441116983BE
:100640007A838B839C832D833E834F83588789E0F5
:10065000E82EF12CEC0EFD1ECE010196B7010E9492
:10066000D2048E010F5E1F4FCE010596B8010E9485
:10067000D2048985823040F08989823028F0C70110
:10068000B8010E944A0501C08FEF6896E6E00C941D
:100690005D11A8E1B0E0EFE4F3E00C94411169834F
:1006A0007A838B839C832D833E834F83588789E095
:1006B000E82EF12CEC0EFD1ECE010196B7010E9432
:1006C000D2048E010F5E1F4FCE010596B8010E9425
:1006D000D2048985823040F08989823028F0C701B0
:1006E000B8010E944A0501C08FEF6896E6E00C94BD
:1006F0005D11A8E1B0E0EFE7F3E00C9441116983EC
:100700007A838B839C832D833E834F83588789E034
:10071000E82EF12CEC0EFD1ECE010196B7010E94D1
:10072000D2048E010F5E1F4FCE010596B8010E94C4
:10073000D2048985823040F08989823028F0C7014F
:10074000B8010E944A0501C081E06896E6E00C9479
:100750005D11ACE0B0E0EFEAF3E00C944511698381
:100760007A838B839C83CE010196BE016B5F7F4FA2
:100770000E94D2048D81823061F1823050F1843048
:1007800021F48E81882351F12EC02F81388537FDC9
:1007900020C06E812F3131051CF06623F9F023C093
:1007A0008EE190E0821B930B29853A854B855C8511
:1007B00004C056954795379527958A95D2F76623B5
:1007C000B1F050954095309521953F4F4F4F5F4F79
:1007D0000EC020E030E040E050E009C02FEF3FEFD6
:1007E0004FEF5FE704C020E030E040E050E8B9019F
:1007F000CA012C96E2E00C946111DF92EF92FF9215
:100800000F931F93FC01E480F58006811781D1804E
:100810008081823048F480E090E0A0E1B0E0E82AF6
:10082000F92A0A2B1B2BA5C0843009F49FC0823003
:1008300021F4EE24FF24870105C0E114F104010531
:10084000110519F4E0E0F0E096C0628173819FEF3A
:10085000623879070CF05BC022E83FEF261B370BAC
:100860002A3131052CF020E030E040E050E02AC091
:10087000B801A701022E04C0769567955795479554
:100880000A94D2F781E090E0A0E0B0E004C0880FC5
:10089000991FAA1FBB1F2A95D2F70197A109B10979
:1008A0008E219F21A023B1230097A105B10521F03E
:1008B00081E090E0A0E0B0E09A01AB01282B392B59
:1008C0004A2B5B2BDA01C9018F779070A070B07052
:1008D00080349105A105B10539F427FF09C0205CDA
:1008E0003F4F4F4F5F4F04C0215C3F4F4F4F5F4F13
:1008F000E0E0F0E02030A0E03A07A0E04A07A0E402
:100900005A0710F0E1E0F0E079018A0127C0603871
:10091000710564F5FB01E158FF4FD801C7018F77DE
:100920009070A070B07080349105A105B10539F4C4
:10093000E7FE0DC080E490E0A0E0B0E004C08FE3EB
:1009400090E0A0E0B0E0E80EF91E0A1F1B1F17FFA1
:1009500005C016950795F794E794319687E01695AC
:100960000795F794E7948A95D1F705C0EE24FF2404
:100970008701EFEFF0E06E2F679566276795902F60
:100980009F77D794DD24D7948E2F8695492F462BB9
:10099000582F5D29B701CA011F910F91FF90EF9069
:1009A000DF900895FC01DB01408151812281622F9B
:1009B0006F7770E0221F2227221F9381892F880FD3
:1009C000822B282F30E0991F9927991F11969C930D
:1009D000119721153105A9F54115510561057105DD
:1009E00011F482E037C082E89FEF13969C938E93B8
:1009F00012979A01AB0167E0220F331F441F551F66
:100A00006A95D1F783E08C930DC0220F331F441FEA
:100A1000551F12968D919C911397019713969C9355
:100A20008E931297203080E0380780E0480780E4FA
:100A3000580758F314962D933D934D935C93179755
:100A400008952F3F310579F4411551056105710570
:100A500019F484E08C93089564FF03C081E08C93C3
:100A600012C01C9210C02F57304013963C932E9307
:100A7000129783E08C9387E0440F551F661F771F02
:100A80008A95D1F7706414964D935D936D937C9322
:100A9000179708951F93DC01FB019C91923008F495
:100AA00047C08081823008F443C0943051F41196DD
:100AB0001C91843099F58181682F70E0611B710968
:100AC0003FC0843021F0923031F48230B9F181811D
:100AD000882389F12DC011961C9111978230F1F075
:100AE00081811817D9F412962D913C911397828128
:100AF00093818217930794F028173907BCF0149656
:100B00008D919D910D90BC91A02D248135814681C0
:100B10005781281739074A075B0718F4112341F05A
:100B20000AC082179307A407B50740F4112319F0F0
:100B300061E070E005C06FEF7FEF02C060E070E041
:100B4000CB011F910895DF93CF93CDB7DEB7A4E318
:100B5000B0E0E4E3F0E080818F608C93AAE3B0E042
:100B6000EAE3F0E080818F638C93A1E3B0E0E1E3FE
:100B7000F0E0808188708C93A2E3B0E0E2E3F0E0E3
:100B8000808184608C93A1E3B0E0E1E3F0E08081B8
:100B900081638C93E7E3F0E01082E8E3F0E08FEF0D
:100BA0008083A5E5B0E0E5E5F0E080818A608C9384
:100BB000ABE5B0E0EBE5F0E08081806E8C93A4E5DE
:100BC000B0E0E4E5F0E0808180648C93CF91DF9128
:100BD00008951F920F920FB60F9211248F93AF9327
:100BE000BF93EF93FF93DF93CF93CDB7DEB7109210
:100BF00068001092690010926A0010926B001092C7
:100C00006C0010926D0010926E00A2E3B0E0E2E37F
:100C1000F0E080818E7F8C93CF91DF91FF91EF91F7
:100C2000BF91AF918F910F900FBE0F901F901895AD
:100C30001F920F920FB60F9211248F93AF93BF9311
:100C4000EF93FF93DF93CF93CDB7DEB7AEE4B0E081
:100C5000EEE4F0E080818B7F8C93CF91DF91FF9168
:100C6000EF91BF91AF918F910F900FBE0F901F909A
:100C700018951F920F920FB60F9211248F93AF9376
:100C8000BF93EF93FF93DF93CF93CDB7DEB7AEE47F
:100C9000B0E0EEE4F0E0808184608C93CF91DF914E
:100CA000FF91EF91BF91AF918F910F900FBE0F9079
:100CB0001F901895DF93CF93CDB7DEB7ECE4F0E04B
:100CC00011821082EAE4F0E084E294EF9183808361
:100CD000AFE4B0E0EFE4F0E0808188608C93A9E5B8
:100CE000B0E0E9E5F0E0808180618C93AEE4B0E0B3
:100CF000EEE4F0E0808184608C93CF91DF910895E1
:100D00001F920F920FB60F9211242F933F934F9380
:100D10005F936F937F938F939F93AF93BF93EF9363
:100D2000FF93DF93CF93CDB7DEB780916E0088231A
:100D300019F40E94280702C00E94B106CF91DF91EA
:100D4000FF91EF91BF91AF919F918F917F916F91A3
:100D50005F914F913F912F910F900FBE0F901F9079
:100D60001895DF93CF93CDB7DEB7A2E3B0E0E2E30F
:100D7000F0E0808180628C93A2E3B0E0E2E3F0E0F7
:100D800080818F7E8C938091680081508093680071
:100D9000809168008F3F41F489E0809368008091E2
:100DA0006900815080936900809169008F3F41F410
:100DB00085E08093690080916A00815080936A0089
:100DC00080916A008F3F41F489E080936A008091AE
:100DD0006B00815080936B0080916B008F3F41F4DA
:100DE00085E080936B0080916C00815080936C0053
:100DF00080916C008F3F41F489E080936C0080917A
:100E00006D00815080936D0080916D008F3F19F4CB
:100E100081E080936D00809168008823B1F4809117
:100E20006900882391F480916A00882371F480918D
:100E30006B00882351F480916C00882331F48091F9
:100E40006D00882311F40E948507CF91DF910895EA
:100E5000DF93CF93CDB7DEB7A2E3B0E0E2E3F0E0FB
:100E6000808180618C93A2E3B0E0E2E3F0E08081D6
:100E70008F7D8C93809168008F5F80936800809154
:100E800068008A3039F410926800809169008F5FA1
:100E90008093690080916900863039F4109269006E
:100EA00080916A008F5F80936A0080916A008A3027
:100EB00039F410926A0080916B008F5F80936B0011
:100EC00080916B00863039F410926B0080916C0039
:100ED0008F5F80936C0080916C008A3039F410929F
:100EE0006C0080916D008F5F80936D0080916D002C
:100EF000823041F480916C00843021F410926D00B6
:100F000010926C00CF91DF910895DF93CF93CDB70E
:100F1000DEB7AEE4B0E0EEE4F0E080818B7F8C934E
:100F2000A2E3B0E0E2E3F0E080818F7D8C93A2E366
:100F3000B0E0E2E3F0E0808181608C93CF91DF91BB
:100F40000895DF93CF93CDB7DEB760970FB6F894CF
:100F5000DEBF0FBECDBF10926F00E7C0EBE3F0E045
:100F600080916F00282F30E081E090E002C0880F70
:100F7000991F2A95E2F7808380916F00282F30E037
:100F8000388B2F878F8598898230910559F12F856D
:100F900038892330310554F48F8598890097B1F052
:100FA0002F85388921303105B9F033C08F85988974
:100FB0008430910519F12F85388924303105C4F02A
:100FC0008F85988985309105F9F023C0E5E3F0E03D
:100FD00080916D0080831DC0E5E3F0E080916C009E
:100FE000808317C0E5E3F0E080916B00808311C03F
:100FF000E5E3F0E080916A0080830BC0E5E3F0E078
:1010000080916900808305C0E5E3F0E0809168008D
:10101000808380E090E0A0EAB0E48B879C87AD8776
:10102000BE876B857C858D859E8520E030E04AE714
:1010300055E40E941F02DC01CB018F839887A987AA
:10104000BA876F81788589859A8520E030E040E80D
:101050005FE30E94790388232CF481E090E09E8373
:101060008D833FC06F81788589859A8520E03FEF29
:101070004FE757E40E94190318164CF56B857C85E1
:101080008D859E8520E030E040E251E40E941F0201
:10109000DC01CB01BC01CD010E944900DC01CB0188
:1010A0009E838D830FC080E991E09C838B838B812D
:1010B0009C810197F1F79C838B838D819E810197A1
:1010C0009E838D838D819E81009769F714C06F8107
:1010D000788589859A850E944900DC01CB019E8331
:1010E0008D838D819E819A83898389819A810197DD
:1010F000F1F79A838983ABE3B0E0EBE3F0E0808122
:10110000482F80916F00282F30E081E090E0022E80
:1011100002C0880F991F0A94E2F7809584238C936C
:1011200080916F008F5F80936F0080916F00863099
:1011300008F414CF60960FB6F894DEBF0FBECDBF93
:10114000CF91DF910895DF93CF93CDB7DEB760974E
:101150000FB6F894DEBF0FBECDBF8F87E6E3F0E099
:101160008081282F30E08F85882F90E0A90102C070
:10117000559547958A95E2F7CA018170907000975E
:1011800009F088C080E090E0A0EFB1E48B879C87F5
:10119000AD87BE876B857C858D859E8520E030E0A0
:1011A0004AE755E40E941F02DC01CB018F83988738
:1011B000A987BA876F81788589859A8520E030E094
:1011C00040E85FE30E94790388232CF481E090E0FB
:1011D0009E838D833FC06F81788589859A8520E0C5
:1011E0003FEF4FE757E40E94190318164CF56B8543
:1011F0007C858D859E8520E030E040E251E40E94B0
:101200001F02DC01CB01BC01CD010E944900DC01C1
:10121000CB019E838D830FC080E991E09C838B83FB
:101220008B819C810197F1F79C838B838D819E81BB
:1012300001979E838D838D819E81009769F714C0ED
:101240006F81788589859A850E944900DC01CB01F0
:101250009E838D838D819E819A83898389819A81E2
:101260000197F1F79A838983E6E3F0E08081282FE4
:1012700030E08F85882F90E0A90102C055954795F1
:101280008A95E2F7CA0181709070009719F451E0D5
:10129000588B01C0188A888960960FB6F894DEBF13
:1012A0000FBECDBFCF91DF9108950F931F93DF93B2
:1012B000CF93CDB7DEB7C057D0400FB6F894DEBF9E
:1012C0000FBECDBF84E00E94A308882309F482C129
:1012D000FE01E359FF4F80E090E0A8E4B2E4808390
:1012E0009183A283B3838E0107591F4FFE01E359F7
:1012F000FF4F608171818281938120E030E04AE775
:1013000055E40E941F02DC01CB01F8018083918328
:10131000A283B383FE01E759FF4F6081718182810F
:10132000938120E030E040E85FE30E947903882366
:1013300044F4FE01E959FF4F81E090E091838083FE
:1013400064C0FE01E759FF4F608171818281938102
:1013500020E03FEF4FE757E40E94190318160CF006
:1013600043C0FE01E359FF4F608171818281938107
:1013700020E030E040E251E40E941F02DC01CB019A
:101380008E0109591F4FBC01CD010E944900DC01AB
:10139000CB01F801918380831FC0FE01EB59FF4F01
:1013A00080E991E091838083FE01EB59FF4F8081BA
:1013B00091810197F1F7FE01EB59FF4F91838083F3
:1013C000DE01A959BF4FFE01E959FF4F808191818C
:1013D000019711969C938E93FE01E959FF4F8081EE
:1013E00091810097D1F627C08E0109591F4FFE0148
:1013F000E759FF4F60817181828193810E9449008A
:10140000DC01CB01F80191838083DE01AD59BF4F30
:10141000FE01E959FF4F808191818D939C93FE01DC
:10142000ED59FF4F808191810197F1F7FE01ED5950
:10143000FF4F9183808384E00E94A308882309F4EE
:10144000C9C080916A008F5F80936A0080916A00B2
:101450008A3069F410926A0080916B008F5F8093EC
:101460006B0080916B00863011F410926B00FE01CE
:10147000E15AFF4F80E090E0A8E4B3E480839183D9
:10148000A283B3838E01055A1F4FFE01E15AFF4F1D
:10149000608171818281938120E030E04AE755E4E8
:1014A0000E941F02DC01CB01F80180839183A2839B
:1014B000B383FE01E55AFF4F608171818281938180
:1014C00020E030E040E85FE30E947903882344F4A1
:1014D000FE01E75AFF4F81E090E09183808364C072
:1014E000FE01E55AFF4F608171818281938120E086
:1014F0003FEF4FE757E40E94190318160CF043C062
:10150000FE01E15AFF4F608171818281938120E069
:1015100030E040E251E40E941F02DC01CB018E0169
:10152000075A1F4FBC01CD010E944900DC01CB01CD
:10153000F801918380831FC0FE01E95AFF4F80E9C3
:1015400091E091838083FE01E95AFF4F8081918170
:101550000197F1F7FE01E95AFF4F91838083DE0185
:10156000A75ABF4FFE01E75AFF4F80819181019733
:1015700011969C938E93FE01E75AFF4F80819181D3
:101580000097D1F627C08E01075A1F4FFE01E55A7A
:10159000FF4F60817181828193810E944900DC014B
:1015A000CB01F80191838083DE01AB5ABF4FFE016E
:1015B000E75AFF4F808191818D939C93FE01EB5AF6
:1015C000FF4F808191810197F1F7FE01EB5AFF4FA8
:1015D0009183808383E00E94A308882309F457C184
:1015E000FE01EF5AFF4F80E090E0A0EFB1E480836E
:1015F0009183A283B3838E01035B1F4FFE01EF5AD9
:10160000FF4F608171818281938120E030E04AE761
:1016100055E40E941F02DC01CB01F8018083918315
:10162000A283B383FE01E35BFF4F608171818281FE
:10163000938120E030E040E85FE30E947903882353
:1016400044F4FE01E55BFF4F81E090E091838083ED
:1016500064C0FE01E35BFF4F6081718182819381F1
:1016600020E03FEF4FE757E40E94190318160CF0F3
:1016700043C0FE01EF5AFF4F6081718182819381E7
:1016800020E030E040E251E40E941F02DC01CB0187
:101690008E01055B1F4FBC01CD010E944900DC019A
:1016A000CB01F801918380831FC0FE01E75BFF4FF0
:1016B00080E991E091838083FE01E75BFF4F8081A9
:1016C00091810197F1F7FE01E75BFF4F91838083E2
:1016D000DE01A55BBF4FFE01E55BFF4F808191817D
:1016E000019711969C938E93FE01E55BFF4F8081DD
:1016F00091810097D1F627C08E01055B1F4FFE0137
:10170000E35BFF4F60817181828193810E94490078
:10171000DC01CB01F80191838083DE01A95BBF4F1F
:10172000FE01E55BFF4F808191818D939C93FE01CB
:10173000E95BFF4F808191810197F1F7FE01E95B41
:10174000FF4F9183808383E00E94A3088823D1F018
:1017500080916A00882389F489E080936A008091EF
:101760006B00882321F485E080936B000BC080918F
:101770006B00815080936B0005C080916A0081509E
:1017800080936A00FE01ED5BFF4F80E090E0A8E4EB
:10179000B3E480839183A283B3838E01015C1F4FE6
:1017A000FE01ED5BFF4F608171818281938120E0BA
:1017B00030E04AE755E40E941F02DC01CB01F8014A
:1017C00080839183A283B383FE01FF966081718140
:1017D0008281938120E030E040E85FE30E9479035A
:1017E00088232CF481E090E09EAF8DAF46C0FE01CF
:1017F000FF96608171818281938120E03FEF4FE706
:1018000057E40E941903181664F5FE01ED5BFF4FC3
:10181000608171818281938120E030E040E251E477
:101820000E941F02DC01CB01BC01CD010E944900D6
:10183000DC01CB019EAF8DAF0FC080E991E09CAF82
:101840008BAF8BAD9CAD0197F1F79CAF8BAF8DAD9E
:101850009EAD01979EAF8DAF8DAD9EAD009769F7A0
:1018600016C0FE01FF9660817181828193810E9482
:101870004900DC01CB019EAF8DAF8DAD9EAD9AAF1F
:1018800089AF89AD9AAD0197F1F79AAF89AF86E03C
:101890000E94A308882309F4FFC080E090E0A0EF35
:1018A000B1E48DAB9EABAFABB8AF6DA97EA98FA9EC
:1018B00098AD20E030E04AE755E40E941F02DC01C9
:1018C000CB0189AB9AABABABBCAB69A97AA98BA9AD
:1018D0009CA920E030E040E85FE30E947903882380
:1018E0002CF481E090E098AB8FA73FC069A97AA95A
:1018F0008BA99CA920E03FEF4FE757E40E94190312
:1019000018164CF56DA97EA98FA998AD20E030E09E
:1019100040E251E40E941F02DC01CB01BC01CD0179
:101920000E944900DC01CB0198AB8FA70FC080E972
:1019300091E09EA78DA78DA59EA50197F1F79EA783
:101940008DA78FA598A9019798AB8FA78FA598A968
:10195000009769F714C069A97AA98BA99CA90E946C
:101960004900DC01CB0198AB8FA78FA598A99CA754
:101970008BA78BA59CA50197F1F79CA78BA786E069
:101980000E94A3088823B1F0809168008F5F809344
:101990006800809168008A3069F410926800809134
:1019A00069008F5F8093690080916900863011F42F
:1019B0001092690080E090E0A8E4B3E48FA398A7B8
:1019C000A9A7BAA76FA178A589A59AA520E030E0BC
:1019D0004AE755E40E941F02DC01CB018BA39CA3C4
:1019E000ADA3BEA36BA17CA18DA19EA120E030E0A0
:1019F00040E85FE30E94790388232CF481E090E0C3
:101A00009AA389A33FC06BA17CA18DA19EA120E0D8
:101A10003FEF4FE757E40E94190318164CF56FA1EA
:101A200078A589A59AA520E030E040E251E40E9423
:101A30001F02DC01CB01BC01CD010E944900DC0189
:101A4000CB019AA389A30FC080E991E098A38F8F5F
:101A50008F8D98A10197F1F798A38F8F89A19AA1F3
:101A600001979AA389A389A19AA1009769F714C045
:101A70006BA17CA18DA19EA10E944900DC01CB013C
:101A80009AA389A389A19AA19E8F8D8F8D8D9E8DFA
:101A90000197F1F79E8F8D8F85E00E94A308882320
:101AA00009F404C180E090E0A0EFB1E4898F9A8F3F
:101AB000AB8FBC8F698D7A8D8B8D9C8D20E030E053
:101AC0004AE755E40E941F02DC01CB018D8B9E8BFF
:101AD000AF8BB88F6D897E898F89988D20E030E03B
:101AE00040E85FE30E94790388232CF481E090E0D2
:101AF0009C8B8B8B3FC06D897E898F89988D20E070
:101B00003FEF4FE757E40E94190318164CF5698D13
:101B10007A8D8B8D9C8D20E030E040E251E40E9474
:101B20001F02DC01CB01BC01CD010E944900DC0198
:101B3000CB019C8B8B8B0FC080E991E09A8B898BBA
:101B400089899A890197F1F79A8B898B8B899C896E
:101B500001979C8B8B8B8B899C89009769F714C0AC
:101B60006D897E898F89988D0E944900DC01CB01A7
:101B70009C8B8B8B8B899C89988B8F878F85988981
:101B80000197F1F7988B8F8785E00E94A30888233F
:101B900009F48CC080916800882389F489E08093DF
:101BA000680080916900882321F485E080936900B2
:101BB0000BC08091690081508093690005C08091BD
:101BC000680081508093680080E090E0A8E4B3E46E
:101BD0008B879C87AD87BE876B857C858D859E8531
:101BE00020E030E04AE755E40E941F02DC01CB010F
:101BF0008F839887A987BA876F81788589859A8529
:101C000020E030E040E85FE30E94790388232CF471
:101C100081E090E09E838D833FC06F8178858985C8
:101C20009A8520E03FEF4FE757E40E94190318160A
:101C30004CF56B857C858D859E8520E030E040E20B
:101C400051E40E941F02DC01CB01BC01CD010E94C6
:101C50004900DC01CB019E838D830FC080E991E0B8
:101C60009C838B838B819C810197F1F79C838B8371
:101C70008D819E8101979E838D838D819E810097AA
:101C800069F714C06F81788589859A850E9449001B
:101C9000DC01CB019E838D838D819E819A83898314
:101CA00089819A810197F1F79A838983C059DF4F1F
:101CB0000FB6F894DEBF0FBECDBFCF91DF911F915D
:101CC0000F910895DF93CF93CDB7DEB7E8970FB6A6
:101CD000F894DEBF0FBECDBF81E00E94A308882329
:101CE00009F405C180E090E0A8E4B2E48DAB9EABBE
:101CF000AFABB8AF6DA97EA98FA998AD20E030E059
:101D00004AE755E40E941F02DC01CB0189AB9AAB84
:101D1000ABABBCAB69A97AA98BA99CA920E030E048
:101D200040E85FE30E94790388232CF481E090E08F
:101D300098AB8FA73FC069A97AA98BA99CA920E07D
:101D40003FEF4FE757E40E94190318164CF56DA9B1
:101D50007EA98FA998AD20E030E040E251E40E94D6
:101D60001F02DC01CB01BC01CD010E944900DC0156
:101D7000CB0198AB8FA70FC080E991E09EA78DA7FC
:101D80008DA59EA50197F1F79EA78DA78FA598A970
:101D9000019798AB8FA78FA598A9009769F714C0F2
:101DA00069A97AA98BA99CA90E944900DC01CB01F1
:101DB00098AB8FA78FA598A99CA78BA78BA59CA54F
:101DC0000197F1F79CA78BA781E00E94A3088823C5
:101DD000E1F080916C008F5F80936C0080916C00CB
:101DE0008A3099F410926C0080916D008F5F80931F
:101DF0006D0080916C00843041F480916D008230E0
:101E000021F410926D0010926C0080E090E0A8E444
:101E1000B3E48FA398A7A9A7BAA76FA178A589A5AE
:101E20009AA520E030E04AE755E40E941F02DC0159
:101E3000CB018BA39CA3ADA3BEA36BA17CA18DA161
:101E40009EA120E030E040E85FE30E947903882310
:101E50002CF481E090E09AA389A33FC06BA17CA100
:101E60008DA19EA120E03FEF4FE757E40E941903A8
:101E700018164CF56FA178A589A59AA520E030E049
:101E800040E251E40E941F02DC01CB01BC01CD0104
:101E90000E944900DC01CB019AA389A30FC080E90D
:101EA00091E098A38F8F8F8D98A10197F1F798A358
:101EB0008F8F89A19AA101979AA389A389A19AA139
:101EC000009769F714C06BA17CA18DA19EA10E940F
:101ED0004900DC01CB019AA389A389A19AA19E8F15
:101EE0008D8F8D8D9E8D0197F1F79E8F8D8F80E068
:101EF0000E94A308882309F403C180E090E0A0EFCA
:101F0000B1E4898F9A8FAB8FBC8F698D7A8D8B8D61
:101F10009C8D20E030E04AE755E40E941F02DC017E
:101F2000CB018D8B9E8BAF8BB88F6D897E898F890E
:101F3000988D20E030E040E85FE30E947903882339
:101F40002CF481E090E09C8B8B8B3FC06D897E8967
:101F50008F89988D20E03FEF4FE757E40E941903E7
:101F600018164CF5698D7A8D8B8D9C8D20E030E0B4
:101F700040E251E40E941F02DC01CB01BC01CD0113
:101F80000E944900DC01CB019C8B8B8B0FC080E948
:101F900091E09A8B898B89899A890197F1F79A8BBD
:101FA000898B8B899C8901979C8B8B8B8B899C89D6
:101FB000009769F714C06D897E898F89988D0E947A
:101FC0004900DC01CB019C8B8B8B8B899C89988B86
:101FD0008F878F8598890197F1F7988B8F8780E09D
:101FE0000E94A3088823A9F080916C00882359F4EB
:101FF00080916D00882339F489E080936C0085E03E
:1020000080936D000BC080916C00815080936C00B8
:1020100005C080916D00815080936D0080E090E05C
:10202000A8E4B3E48B879C87AD87BE876B857C85EE
:102030008D859E8520E030E04AE755E40E941F022E
:10204000DC01CB018F839887A987BA876F81788558
:1020500089859A8520E030E040E85FE30E947903BB
:1020600088232CF481E090E09E838D833FC06F81B4
:10207000788589859A8520E03FEF4FE757E40E94F5
:10208000190318164CF56B857C858D859E8520E09F
:1020900030E040E251E40E941F02DC01CB01BC01B0
:1020A000CD010E944900DC01CB019E838D830FC0CE
:1020B00080E991E09C838B838B819C810197F1F770
:1020C0009C838B838D819E8101979E838D838D81DF
:1020D0009E81009769F714C06F81788589859A85FC
:1020E0000E944900DC01CB019E838D838D819E81FE
:1020F0009A83898389819A810197F1F79A838983E9
:10210000E8960FB6F894DEBF0FBECDBFCF91DF913A
:102110000895DF93CF93CDB7DEB72F970FB6F8941E
:10212000DEBF0FBECDBFE6E3F0E0808188230CF474
:1021300081C080E090E0A0EFB1E48B879C87AD8701
:10214000BE876B857C858D859E8520E030E04AE7E3
:1021500055E40E941F02DC01CB018F839887A98779
:10216000BA876F81788589859A8520E030E040E8DC
:102170005FE30E94790388232CF481E090E09E8342
:102180008D833FC06F81788589859A8520E03FEFF8
:102190004FE757E40E94190318164CF56B857C85B0
:1021A0008D859E8520E030E040E251E40E941F02D0
:1021B000DC01CB01BC01CD010E944900DC01CB0157
:1021C0009E838D830FC080E991E09C838B838B81FC
:1021D0009C810197F1F79C838B838D819E81019770
:1021E0009E838D838D819E81009769F714C06F81D6
:1021F000788589859A850E944900DC01CB019E8300
:102200008D838D819E819A83898389819A810197AB
:10221000F1F79A838983E6E3F0E08081882354F024
:1022200080916E001F86882311F481E08F878F854F
:1022300080936E002F960FB6F894DEBF0FBECDBF11
:10224000CF91DF910895DF93CF93CDB7DEB7789428
:102250000E94A3050E945A060E94A1070E945509E8
:102260000E94620E0E948910F7CF2F923F924F92E8
:102270005F926F927F928F929F92AF92BF92CF9216
:10228000DF92EF92FF920F931F93CF93DF93CDB71F
:10229000DEB7CA1BDB0B0FB6F894DEBF0FBECDBF97
:1022A00009942A88398848885F846E847D848C8468
:1022B0009B84AA84B984C884DF80EE80FD800C8171
:1022C0001B81AA81B981CE0FD11D0FB6F894DEBF54
:0C22D0000FBECDBFED010895F894FFCFC4
:0822DC000000000000000000FA
:00000001FF
